{
  "_format": "hh-sol-artifact-1",
  "contractName": "Helper",
  "sourceName": "contracts/mocks/Helper.sol",
  "abi": [
    {
      "inputs": [
        {
          "internalType": "contract IFollowNFT",
          "name": "nft",
          "type": "address"
        },
        {
          "internalType": "address",
          "name": "first",
          "type": "address"
        },
        {
          "internalType": "address",
          "name": "second",
          "type": "address"
        }
      ],
      "name": "batchDelegate",
      "outputs": [],
      "stateMutability": "nonpayable",
      "type": "function"
    },
    {
      "inputs": [],
      "name": "getBlockNumber",
      "outputs": [
        {
          "internalType": "uint256",
          "name": "",
          "type": "uint256"
        }
      ],
      "stateMutability": "view",
      "type": "function"
    }
  ],
  "bytecode": "0x608060405234801561001057600080fd5b506101b7806100206000396000f3fe608060405234801561001057600080fd5b50600436106100365760003560e01c806342cbb15c1461003b578063ef2fbbc31461004e575b600080fd5b4360405190815260200160405180910390f35b61006161005c366004610136565b610063565b005b6040516317066a5760e21b81526001600160a01b038381166004830152841690635c19a95c90602401600060405180830381600087803b1580156100a657600080fd5b505af11580156100ba573d6000803e3d6000fd5b50506040516317066a5760e21b81526001600160a01b03848116600483015286169250635c19a95c9150602401600060405180830381600087803b15801561010157600080fd5b505af1158015610115573d6000803e3d6000fd5b50505050505050565b6001600160a01b038116811461013357600080fd5b50565b60008060006060848603121561014b57600080fd5b83356101568161011e565b925060208401356101668161011e565b915060408401356101768161011e565b80915050925092509256fea26469706673582212200755f01a77d8feb4c3e20169b7f9d0685813b5188815ab3b1f947afdbbd8ae6164736f6c634300080a0033",
  "linkReferences": {},
  "deployedLinkReferences": {}
}