{
  "_format": "hh-sol-artifact-1",
  "contractName": "SuperDeno",
  "sourceName": "contracts/SocialDao.sol",
  "abi": [
    {
      "inputs": [
        {
          "internalType": "string[]",
          "name": "_discipline",
          "type": "string[]"
        }
      ],
      "stateMutability": "nonpayable",
      "type": "constructor"
    },
    {
      "anonymous": false,
      "inputs": [
        {
          "indexed": false,
          "internalType": "string",
          "name": "message",
          "type": "string"
        }
      ],
      "name": "DisciplineUpdated",
      "type": "event"
    },
    {
      "anonymous": false,
      "inputs": [
        {
          "indexed": true,
          "internalType": "address",
          "name": "sender",
          "type": "address"
        },
        {
          "indexed": false,
          "internalType": "string",
          "name": "name",
          "type": "string"
        },
        {
          "indexed": false,
          "internalType": "string",
          "name": "message",
          "type": "string"
        }
      ],
      "name": "SocialDaoCreated",
      "type": "event"
    },
    {
      "inputs": [],
      "name": "NAME",
      "outputs": [
        {
          "internalType": "string",
          "name": "",
          "type": "string"
        }
      ],
      "stateMutability": "view",
      "type": "function"
    },
    {
      "inputs": [],
      "name": "allDaoNames",
      "outputs": [
        {
          "internalType": "string[]",
          "name": "_daoNames",
          "type": "string[]"
        }
      ],
      "stateMutability": "view",
      "type": "function"
    },
    {
      "inputs": [
        {
          "internalType": "address[]",
          "name": "_owners",
          "type": "address[]"
        },
        {
          "internalType": "uint256",
          "name": "_numConfirmationsRequired",
          "type": "uint256"
        },
        {
          "internalType": "string",
          "name": "_name",
          "type": "string"
        },
        {
          "internalType": "string[]",
          "name": "_constitution",
          "type": "string[]"
        }
      ],
      "name": "createSocialDAO",
      "outputs": [],
      "stateMutability": "payable",
      "type": "function"
    },
    {
      "inputs": [
        {
          "internalType": "uint256",
          "name": "",
          "type": "uint256"
        }
      ],
      "name": "daoNames",
      "outputs": [
        {
          "internalType": "string",
          "name": "",
          "type": "string"
        }
      ],
      "stateMutability": "view",
      "type": "function"
    },
    {
      "inputs": [
        {
          "internalType": "uint256",
          "name": "",
          "type": "uint256"
        }
      ],
      "name": "daos",
      "outputs": [
        {
          "internalType": "contract SocialDAO",
          "name": "",
          "type": "address"
        }
      ],
      "stateMutability": "view",
      "type": "function"
    },
    {
      "inputs": [
        {
          "internalType": "uint256",
          "name": "",
          "type": "uint256"
        }
      ],
      "name": "discipline",
      "outputs": [
        {
          "internalType": "string",
          "name": "",
          "type": "string"
        }
      ],
      "stateMutability": "view",
      "type": "function"
    },
    {
      "inputs": [
        {
          "internalType": "string",
          "name": "_name",
          "type": "string"
        }
      ],
      "name": "getDAOAddressByName",
      "outputs": [
        {
          "internalType": "address",
          "name": "",
          "type": "address"
        }
      ],
      "stateMutability": "view",
      "type": "function"
    },
    {
      "inputs": [
        {
          "internalType": "uint256",
          "name": "",
          "type": "uint256"
        }
      ],
      "name": "owners",
      "outputs": [
        {
          "internalType": "address",
          "name": "",
          "type": "address"
        }
      ],
      "stateMutability": "view",
      "type": "function"
    },
    {
      "inputs": [],
      "name": "superDenoInfo",
      "outputs": [
        {
          "internalType": "string",
          "name": "_superDaoName",
          "type": "string"
        },
        {
          "internalType": "string[]",
          "name": "_discipline",
          "type": "string[]"
        },
        {
          "internalType": "address[]",
          "name": "_owners",
          "type": "address[]"
        }
      ],
      "stateMutability": "view",
      "type": "function"
    }
  ],
  "bytecode": "0x60806040523480156200001157600080fd5b5060405162005dd638038062005dd68339818101604052810190620000379190620004d8565b6001339080600181540180825580915050600190039060005260206000200160009091909190916101000a81548173ffffffffffffffffffffffffffffffffffffffff021916908373ffffffffffffffffffffffffffffffffffffffff1602179055508060009080519060200190620000b2929190620000ba565b50506200058e565b8280548282559060005260206000209081019282156200010e579160200282015b828111156200010d578251829080519060200190620000fc92919062000121565b5091602001919060010190620000db565b5b5090506200011d9190620001b2565b5090565b8280546200012f9062000558565b90600052602060002090601f0160209004810192826200015357600085556200019f565b82601f106200016e57805160ff19168380011785556200019f565b828001600101855582156200019f579182015b828111156200019e57825182559160200191906001019062000181565b5b509050620001ae9190620001da565b5090565b5b80821115620001d65760008181620001cc9190620001f9565b50600101620001b3565b5090565b5b80821115620001f5576000816000905550600101620001db565b5090565b508054620002079062000558565b6000825580601f106200021b57506200023c565b601f0160209004906000526020600020908101906200023b9190620001da565b5b50565b6000604051905090565b600080fd5b600080fd5b600080fd5b6000601f19601f8301169050919050565b7f4e487b7100000000000000000000000000000000000000000000000000000000600052604160045260246000fd5b620002a38262000258565b810181811067ffffffffffffffff82111715620002c557620002c462000269565b5b80604052505050565b6000620002da6200023f565b9050620002e8828262000298565b919050565b600067ffffffffffffffff8211156200030b576200030a62000269565b5b602082029050602081019050919050565b600080fd5b600080fd5b600067ffffffffffffffff82111562000344576200034362000269565b5b6200034f8262000258565b9050602081019050919050565b60005b838110156200037c5780820151818401526020810190506200035f565b838111156200038c576000848401525b50505050565b6000620003a9620003a38462000326565b620002ce565b905082815260208101848484011115620003c857620003c762000321565b5b620003d58482856200035c565b509392505050565b600082601f830112620003f557620003f462000253565b5b81516200040784826020860162000392565b91505092915050565b6000620004276200042184620002ed565b620002ce565b905080838252602082019050602084028301858111156200044d576200044c6200031c565b5b835b818110156200049b57805167ffffffffffffffff81111562000476576200047562000253565b5b808601620004858982620003dd565b855260208501945050506020810190506200044f565b5050509392505050565b600082601f830112620004bd57620004bc62000253565b5b8151620004cf84826020860162000410565b91505092915050565b600060208284031215620004f157620004f062000249565b5b600082015167ffffffffffffffff8111156200051257620005116200024e565b5b6200052084828501620004a5565b91505092915050565b7f4e487b7100000000000000000000000000000000000000000000000000000000600052602260045260246000fd5b600060028204905060018216806200057157607f821691505b6020821081141562000588576200058762000529565b5b50919050565b615838806200059e6000396000f3fe608060405260043610620000925760003560e01c806368acaf99116200006157806368acaf99146200016f578063982a623414620001b3578063a3f4df7e14620001e5578063ccbbd2601462000215578063d6b554a814620002595762000092565b8063025e7c27146200009757806328152deb14620000db578063346d6059146200010b5780635717a08d146200014f575b600080fd5b348015620000a457600080fd5b50620000c36004803603810190620000bd919062000aef565b6200029d565b604051620000d2919062000b66565b60405180910390f35b348015620000e857600080fd5b50620000f3620002dd565b60405162000102919062000cf7565b60405180910390f35b3480156200011857600080fd5b5062000137600480360381019062000131919062000aef565b620003c0565b60405162000146919062000d6d565b60405180910390f35b6200016d6004803603810190620001679190620010e5565b62000475565b005b3480156200017c57600080fd5b506200019b600480360381019062000195919062000aef565b620006b9565b604051620001aa919062000d6d565b60405180910390f35b348015620001c057600080fd5b50620001cb6200076e565b604051620001dc9392919062001282565b60405180910390f35b348015620001f257600080fd5b50620001fd6200091f565b6040516200020c919062000d6d565b60405180910390f35b3480156200022257600080fd5b506200024160048036038101906200023b919062000aef565b62000958565b6040516200025091906200133f565b60405180910390f35b3480156200026657600080fd5b506200028560048036038101906200027f91906200135c565b62000998565b60405162000294919062000b66565b60405180910390f35b60018181548110620002ae57600080fd5b906000526020600020016000915054906101000a900473ffffffffffffffffffffffffffffffffffffffff1681565b60606003805480602002602001604051908101604052809291908181526020016000905b82821015620003b75783829060005260206000200180546200032390620013dc565b80601f01602080910402602001604051908101604052809291908181526020018280546200035190620013dc565b8015620003a25780601f106200037657610100808354040283529160200191620003a2565b820191906000526020600020905b8154815290600101906020018083116200038457829003601f168201915b50505050508152602001906001019062000301565b50505050905090565b60008181548110620003d157600080fd5b906000526020600020016000915090508054620003ee90620013dc565b80601f01602080910402602001604051908101604052809291908181526020018280546200041c90620013dc565b80156200046d5780601f1062000441576101008083540402835291602001916200046d565b820191906000526020600020905b8154815290600101906020018083116200044f57829003601f168201915b505050505081565b60058260405162000487919062001454565b908152602001604051809103902060009054906101000a900460ff1615620004e6576040517f08c379a0000000000000000000000000000000000000000000000000000000008152600401620004dd90620014bd565b60405180910390fd5b600084848484604051620004fa90620009e2565b620005099493929190620014f0565b604051809103906000f08015801562000526573d6000803e3d6000fd5b5090506002819080600181540180825580915050600190039060005260206000200160009091909190916101000a81548173ffffffffffffffffffffffffffffffffffffffff021916908373ffffffffffffffffffffffffffffffffffffffff160217905550806004846040516200059f919062001454565b908152602001604051809103902060006101000a81548173ffffffffffffffffffffffffffffffffffffffff021916908373ffffffffffffffffffffffffffffffffffffffff1602179055506001600584604051620005ff919062001454565b908152602001604051809103902060006101000a81548160ff02191690831515021790555060038390806001815401808255809150506001900390600052602060002001600090919091909150908051906020019062000661929190620009f0565b503373ffffffffffffffffffffffffffffffffffffffff167ffe3d028c87f5fddc175c482ced09f4365559478c9ba845528fbeea876e85ad0084604051620006aa9190620015a2565b60405180910390a25050505050565b60038181548110620006ca57600080fd5b906000526020600020016000915090508054620006e790620013dc565b80601f01602080910402602001604051908101604052809291908181526020018280546200071590620013dc565b8015620007665780601f106200073a5761010080835404028352916020019162000766565b820191906000526020600020905b8154815290600101906020018083116200074857829003601f168201915b505050505081565b60608060606040518060400160405280600a81526020017f53757065722044656e6f000000000000000000000000000000000000000000008152506000600181805480602002602001604051908101604052809291908181526020016000905b8282101562000884578382906000526020600020018054620007f090620013dc565b80601f01602080910402602001604051908101604052809291908181526020018280546200081e90620013dc565b80156200086f5780601f1062000843576101008083540402835291602001916200086f565b820191906000526020600020905b8154815290600101906020018083116200085157829003601f168201915b505050505081526020019060010190620007ce565b505050509150808054806020026020016040519081016040528092919081815260200182805480156200090d57602002820191906000526020600020905b8160009054906101000a900473ffffffffffffffffffffffffffffffffffffffff1673ffffffffffffffffffffffffffffffffffffffff1681526020019060010190808311620008c2575b50505050509050925092509250909192565b6040518060400160405280600a81526020017f53757065722044656e6f0000000000000000000000000000000000000000000081525081565b600281815481106200096957600080fd5b906000526020600020016000915054906101000a900473ffffffffffffffffffffffffffffffffffffffff1681565b6000600482604051620009ac919062001454565b908152602001604051809103902060009054906101000a900473ffffffffffffffffffffffffffffffffffffffff169050919050565b61422780620015dc83390190565b828054620009fe90620013dc565b90600052602060002090601f01602090048101928262000a22576000855562000a6e565b82601f1062000a3d57805160ff191683800117855562000a6e565b8280016001018555821562000a6e579182015b8281111562000a6d57825182559160200191906001019062000a50565b5b50905062000a7d919062000a81565b5090565b5b8082111562000a9c57600081600090555060010162000a82565b5090565b6000604051905090565b600080fd5b600080fd5b6000819050919050565b62000ac98162000ab4565b811462000ad557600080fd5b50565b60008135905062000ae98162000abe565b92915050565b60006020828403121562000b085762000b0762000aaa565b5b600062000b188482850162000ad8565b91505092915050565b600073ffffffffffffffffffffffffffffffffffffffff82169050919050565b600062000b4e8262000b21565b9050919050565b62000b608162000b41565b82525050565b600060208201905062000b7d600083018462000b55565b92915050565b600081519050919050565b600082825260208201905092915050565b6000819050602082019050919050565b600081519050919050565b600082825260208201905092915050565b60005b8381101562000beb57808201518184015260208101905062000bce565b8381111562000bfb576000848401525b50505050565b6000601f19601f8301169050919050565b600062000c1f8262000baf565b62000c2b818562000bba565b935062000c3d81856020860162000bcb565b62000c488162000c01565b840191505092915050565b600062000c61838362000c12565b905092915050565b6000602082019050919050565b600062000c838262000b83565b62000c8f818562000b8e565b93508360208202850162000ca38562000b9f565b8060005b8581101562000ce5578484038952815162000cc3858262000c53565b945062000cd08362000c69565b925060208a0199505060018101905062000ca7565b50829750879550505050505092915050565b6000602082019050818103600083015262000d13818462000c76565b905092915050565b600082825260208201905092915050565b600062000d398262000baf565b62000d45818562000d1b565b935062000d5781856020860162000bcb565b62000d628162000c01565b840191505092915050565b6000602082019050818103600083015262000d89818462000d2c565b905092915050565b600080fd5b7f4e487b7100000000000000000000000000000000000000000000000000000000600052604160045260246000fd5b62000dd08262000c01565b810181811067ffffffffffffffff8211171562000df25762000df162000d96565b5b80604052505050565b600062000e0762000aa0565b905062000e15828262000dc5565b919050565b600067ffffffffffffffff82111562000e385762000e3762000d96565b5b602082029050602081019050919050565b600080fd5b62000e598162000b41565b811462000e6557600080fd5b50565b60008135905062000e798162000e4e565b92915050565b600062000e9662000e908462000e1a565b62000dfb565b9050808382526020820190506020840283018581111562000ebc5762000ebb62000e49565b5b835b8181101562000ee9578062000ed4888262000e68565b84526020840193505060208101905062000ebe565b5050509392505050565b600082601f83011262000f0b5762000f0a62000d91565b5b813562000f1d84826020860162000e7f565b91505092915050565b600080fd5b600067ffffffffffffffff82111562000f495762000f4862000d96565b5b62000f548262000c01565b9050602081019050919050565b82818337600083830152505050565b600062000f8762000f818462000f2b565b62000dfb565b90508281526020810184848401111562000fa65762000fa562000f26565b5b62000fb384828562000f61565b509392505050565b600082601f83011262000fd35762000fd262000d91565b5b813562000fe584826020860162000f70565b91505092915050565b600067ffffffffffffffff8211156200100c576200100b62000d96565b5b602082029050602081019050919050565b6000620010346200102e8462000fee565b62000dfb565b905080838252602082019050602084028301858111156200105a576200105962000e49565b5b835b81811015620010a857803567ffffffffffffffff81111562001083576200108262000d91565b5b80860162001092898262000fbb565b855260208501945050506020810190506200105c565b5050509392505050565b600082601f830112620010ca57620010c962000d91565b5b8135620010dc8482602086016200101d565b91505092915050565b6000806000806080858703121562001102576200110162000aaa565b5b600085013567ffffffffffffffff81111562001123576200112262000aaf565b5b620011318782880162000ef3565b9450506020620011448782880162000ad8565b935050604085013567ffffffffffffffff81111562001168576200116762000aaf565b5b620011768782880162000fbb565b925050606085013567ffffffffffffffff8111156200119a576200119962000aaf565b5b620011a887828801620010b2565b91505092959194509250565b600081519050919050565b600082825260208201905092915050565b6000819050602082019050919050565b620011eb8162000b41565b82525050565b6000620011ff8383620011e0565b60208301905092915050565b6000602082019050919050565b60006200122582620011b4565b620012318185620011bf565b93506200123e83620011d0565b8060005b8381101562001275578151620012598882620011f1565b975062001266836200120b565b92505060018101905062001242565b5085935050505092915050565b600060608201905081810360008301526200129e818662000d2c565b90508181036020830152620012b4818562000c76565b90508181036040830152620012ca818462001218565b9050949350505050565b6000819050919050565b6000620012ff620012f9620012f38462000b21565b620012d4565b62000b21565b9050919050565b60006200131382620012de565b9050919050565b6000620013278262001306565b9050919050565b62001339816200131a565b82525050565b60006020820190506200135660008301846200132e565b92915050565b60006020828403121562001375576200137462000aaa565b5b600082013567ffffffffffffffff81111562001396576200139562000aaf565b5b620013a48482850162000fbb565b91505092915050565b7f4e487b7100000000000000000000000000000000000000000000000000000000600052602260045260246000fd5b60006002820490506001821680620013f557607f821691505b602082108114156200140c576200140b620013ad565b5b50919050565b600081905092915050565b60006200142a8262000baf565b62001436818562001412565b93506200144881856020860162000bcb565b80840191505092915050565b60006200146282846200141d565b915081905092915050565b7f44414f20616c7265616479206578697374730000000000000000000000000000600082015250565b6000620014a560128362000d1b565b9150620014b2826200146d565b602082019050919050565b60006020820190508181036000830152620014d88162001496565b9050919050565b620014ea8162000ab4565b82525050565b600060808201905081810360008301526200150c818762001218565b90506200151d6020830186620014df565b818103604083015262001531818562000d2c565b9050818103606083015262001547818462000c76565b905095945050505050565b7f44616f20686173206265656e2063726561746564210000000000000000000000600082015250565b60006200158a60158362000d1b565b9150620015978262001552565b602082019050919050565b60006040820190508181036000830152620015be818462000d2c565b90508181036020830152620015d3816200157b565b90509291505056fe60806040523480156200001157600080fd5b5060405162004227380380620042278339818101604052810190620000379190620008f5565b60008451116200007e576040517f08c379a0000000000000000000000000000000000000000000000000000000008152600401620000759062000a4b565b60405180910390fd5b6000815111620000c5576040517f08c379a0000000000000000000000000000000000000000000000000000000008152600401620000bc9062000abd565b60405180910390fd5b600083118015620000d7575083518311155b62000119576040517f08c379a0000000000000000000000000000000000000000000000000000000008152600401620001109062000b55565b60405180910390fd5b60005b84518110156200031d5760008582815181106200013e576200013d62000b77565b5b60200260200101519050600073ffffffffffffffffffffffffffffffffffffffff168173ffffffffffffffffffffffffffffffffffffffff161415620001bb576040517f08c379a0000000000000000000000000000000000000000000000000000000008152600401620001b29062000bf6565b60405180910390fd5b600560008273ffffffffffffffffffffffffffffffffffffffff1673ffffffffffffffffffffffffffffffffffffffff16815260200190815260200160002060009054906101000a900460ff16156200024b576040517f08c379a0000000000000000000000000000000000000000000000000000000008152600401620002429062000c68565b60405180910390fd5b6001600560008373ffffffffffffffffffffffffffffffffffffffff1673ffffffffffffffffffffffffffffffffffffffff16815260200190815260200160002060006101000a81548160ff0219169083151502179055506003819080600181540180825580915050600190039060005260206000200160009091909190916101000a81548173ffffffffffffffffffffffffffffffffffffffff021916908373ffffffffffffffffffffffffffffffffffffffff160217905550508080620003149062000cb9565b9150506200011c565b508260068190555081600090805190602001906200033d92919062000361565b50806002908051906020019062000356929190620003f2565b505050505062000d6c565b8280546200036f9062000d36565b90600052602060002090601f016020900481019282620003935760008555620003df565b82601f10620003ae57805160ff1916838001178555620003df565b82800160010185558215620003df579182015b82811115620003de578251825591602001919060010190620003c1565b5b509050620003ee919062000459565b5090565b82805482825590600052602060002090810192821562000446579160200282015b82811115620004455782518290805190602001906200043492919062000361565b509160200191906001019062000413565b5b50905062000455919062000478565b5090565b5b80821115620004745760008160009055506001016200045a565b5090565b5b808211156200049c5760008181620004929190620004a0565b5060010162000479565b5090565b508054620004ae9062000d36565b6000825580601f10620004c25750620004e3565b601f016020900490600052602060002090810190620004e2919062000459565b5b50565b6000604051905090565b600080fd5b600080fd5b600080fd5b6000601f19601f8301169050919050565b7f4e487b7100000000000000000000000000000000000000000000000000000000600052604160045260246000fd5b6200054a82620004ff565b810181811067ffffffffffffffff821117156200056c576200056b62000510565b5b80604052505050565b600062000581620004e6565b90506200058f82826200053f565b919050565b600067ffffffffffffffff821115620005b257620005b162000510565b5b602082029050602081019050919050565b600080fd5b600073ffffffffffffffffffffffffffffffffffffffff82169050919050565b6000620005f582620005c8565b9050919050565b6200060781620005e8565b81146200061357600080fd5b50565b6000815190506200062781620005fc565b92915050565b6000620006446200063e8462000594565b62000575565b905080838252602082019050602084028301858111156200066a5762000669620005c3565b5b835b8181101562000697578062000682888262000616565b8452602084019350506020810190506200066c565b5050509392505050565b600082601f830112620006b957620006b8620004fa565b5b8151620006cb8482602086016200062d565b91505092915050565b6000819050919050565b620006e981620006d4565b8114620006f557600080fd5b50565b6000815190506200070981620006de565b92915050565b600080fd5b600067ffffffffffffffff82111562000732576200073162000510565b5b6200073d82620004ff565b9050602081019050919050565b60005b838110156200076a5780820151818401526020810190506200074d565b838111156200077a576000848401525b50505050565b600062000797620007918462000714565b62000575565b905082815260208101848484011115620007b657620007b56200070f565b5b620007c38482856200074a565b509392505050565b600082601f830112620007e357620007e2620004fa565b5b8151620007f584826020860162000780565b91505092915050565b600067ffffffffffffffff8211156200081c576200081b62000510565b5b602082029050602081019050919050565b6000620008446200083e84620007fe565b62000575565b905080838252602082019050602084028301858111156200086a5762000869620005c3565b5b835b81811015620008b857805167ffffffffffffffff811115620008935762000892620004fa565b5b808601620008a28982620007cb565b855260208501945050506020810190506200086c565b5050509392505050565b600082601f830112620008da57620008d9620004fa565b5b8151620008ec8482602086016200082d565b91505092915050565b60008060008060808587031215620009125762000911620004f0565b5b600085015167ffffffffffffffff811115620009335762000932620004f5565b5b6200094187828801620006a1565b94505060206200095487828801620006f8565b935050604085015167ffffffffffffffff811115620009785762000977620004f5565b5b6200098687828801620007cb565b925050606085015167ffffffffffffffff811115620009aa57620009a9620004f5565b5b620009b887828801620008c2565b91505092959194509250565b600082825260208201905092915050565b7f6f6e65206f72206d6f7265207468616e206f6e65206f776e657273206172652060008201527f7265717569726564000000000000000000000000000000000000000000000000602082015250565b600062000a33602883620009c4565b915062000a4082620009d5565b604082019050919050565b6000602082019050818103600083015262000a668162000a24565b9050919050565b7f412064657461696c656420436f6e737469747574696f6e207265717569726564600082015250565b600062000aa5602083620009c4565b915062000ab28262000a6d565b602082019050919050565b6000602082019050818103600083015262000ad88162000a96565b9050919050565b7f696e76616c6964206e756d626572206f6620726571756972656420636f6e666960008201527f726d6174696f6e73000000000000000000000000000000000000000000000000602082015250565b600062000b3d602883620009c4565b915062000b4a8262000adf565b604082019050919050565b6000602082019050818103600083015262000b708162000b2e565b9050919050565b7f4e487b7100000000000000000000000000000000000000000000000000000000600052603260045260246000fd5b7f696e76616c6964206f776e657200000000000000000000000000000000000000600082015250565b600062000bde600d83620009c4565b915062000beb8262000ba6565b602082019050919050565b6000602082019050818103600083015262000c118162000bcf565b9050919050565b7f6f776e6572206e6f7420756e6971756500000000000000000000000000000000600082015250565b600062000c50601083620009c4565b915062000c5d8262000c18565b602082019050919050565b6000602082019050818103600083015262000c838162000c41565b9050919050565b7f4e487b7100000000000000000000000000000000000000000000000000000000600052601160045260246000fd5b600062000cc682620006d4565b91507fffffffffffffffffffffffffffffffffffffffffffffffffffffffffffffffff82141562000cfc5762000cfb62000c8a565b5b600182019050919050565b7f4e487b7100000000000000000000000000000000000000000000000000000000600052602260045260246000fd5b6000600282049050600182168062000d4f57607f821691505b6020821081141562000d665762000d6562000d07565b5b50919050565b6134ab8062000d7c6000396000f3fe6080604052600436106101445760003560e01c80635a9b0b89116100b6578063c01a8c841161006f578063c01a8c841461050d578063c642747414610536578063d0549b851461055f578063d39258ca1461058a578063ee22610b146105c8578063f3c900e8146105f15761019b565b80635a9b0b89146103e357806366456437146104125780637065cb481461043b57806380f59a65146104645780639ace38c2146104a1578063a0e67e2b146104e25761019b565b80632e7700f0116101085780632e7700f0146102975780632f54bf6e146102c257806333ea3dc8146102ff5780633f73d8871461034057806350c05ccd1461037d5780635831f26a146103a65761019b565b8063025e7c27146101a057806306fdde03146101dd578063173825d9146102085780631a1e71181461023157806320ea8d861461026e5761019b565b3661019b573373ffffffffffffffffffffffffffffffffffffffff167f90890809c654f11d6e72a28fa60149770a0d11ec6c92319d6ceb2bb0a4ea1a15344760405161019192919061235f565b60405180910390a2005b600080fd5b3480156101ac57600080fd5b506101c760048036038101906101c291906123c8565b61061c565b6040516101d49190612436565b60405180910390f35b3480156101e957600080fd5b506101f261065b565b6040516101ff91906124ea565b60405180910390f35b34801561021457600080fd5b5061022f600480360381019061022a9190612538565b6106e9565b005b34801561023d57600080fd5b50610258600480360381019061025391906123c8565b61083f565b60405161026591906124ea565b60405180910390f35b34801561027a57600080fd5b50610295600480360381019061029091906123c8565b6108eb565b005b3480156102a357600080fd5b506102ac610bc5565b6040516102b99190612565565b60405180910390f35b3480156102ce57600080fd5b506102e960048036038101906102e49190612538565b610bd2565b6040516102f6919061259b565b60405180910390f35b34801561030b57600080fd5b50610326600480360381019061032191906123c8565b610bf2565b60405161033795949392919061260b565b60405180910390f35b34801561034c57600080fd5b50610367600480360381019061036291906123c8565b610d05565b60405161037491906124ea565b60405180910390f35b34801561038957600080fd5b506103a4600480360381019061039f9190612880565b610db1565b005b3480156103b257600080fd5b506103cd60048036038101906103c89190612538565b610e6f565b6040516103da919061259b565b60405180910390f35b3480156103ef57600080fd5b506103f8610e8f565b604051610409959493929190612ac2565b60405180910390f35b34801561041e57600080fd5b5061043960048036038101906104349190612bd9565b6111f8565b005b34801561044757600080fd5b50610462600480360381019061045d9190612538565b61140d565b005b34801561047057600080fd5b5061048b60048036038101906104869190612c35565b611652565b604051610498919061259b565b60405180910390f35b3480156104ad57600080fd5b506104c860048036038101906104c391906123c8565b611681565b6040516104d995949392919061260b565b60405180910390f35b3480156104ee57600080fd5b506104f761177c565b6040516105049190612c75565b60405180910390f35b34801561051957600080fd5b50610534600480360381019061052f91906123c8565b61180a565b005b34801561054257600080fd5b5061055d60048036038101906105589190612c97565b611ae7565b005b34801561056b57600080fd5b50610574611cf1565b6040516105819190612565565b60405180910390f35b34801561059657600080fd5b506105b160048036038101906105ac91906123c8565b611cf7565b6040516105bf929190612d06565b60405180910390f35b3480156105d457600080fd5b506105ef60048036038101906105ea91906123c8565b611dd3565b005b3480156105fd57600080fd5b506106066120cb565b60405161061391906124ea565b60405180910390f35b6003818154811061062c57600080fd5b906000526020600020016000915054906101000a900473ffffffffffffffffffffffffffffffffffffffff1681565b6000805461066890612d65565b80601f016020809104026020016040519081016040528092919081815260200182805461069490612d65565b80156106e15780601f106106b6576101008083540402835291602001916106e1565b820191906000526020600020905b8154815290600101906020018083116106c457829003601f168201915b505050505081565b600560008273ffffffffffffffffffffffffffffffffffffffff1673ffffffffffffffffffffffffffffffffffffffff16815260200190815260200160002060009054906101000a900460ff1615610776576040517f08c379a000000000000000000000000000000000000000000000000000000000815260040161076d90612de3565b60405180910390fd5b3073ffffffffffffffffffffffffffffffffffffffff163373ffffffffffffffffffffffffffffffffffffffff16146107e4576040517f08c379a00000000000000000000000000000000000000000000000000000000081526004016107db90612e4f565b60405180910390fd5b6000600560008373ffffffffffffffffffffffffffffffffffffffff1673ffffffffffffffffffffffffffffffffffffffff16815260200190815260200160002060006101000a81548160ff02191690831515021790555050565b6004818154811061084f57600080fd5b90600052602060002001600091509050805461086a90612d65565b80601f016020809104026020016040519081016040528092919081815260200182805461089690612d65565b80156108e35780601f106108b8576101008083540402835291602001916108e3565b820191906000526020600020905b8154815290600101906020018083116108c657829003601f168201915b505050505081565b600560003373ffffffffffffffffffffffffffffffffffffffff1673ffffffffffffffffffffffffffffffffffffffff16815260200190815260200160002060009054906101000a900460ff16610977576040517f08c379a000000000000000000000000000000000000000000000000000000000815260040161096e90612ebb565b60405180910390fd5b80600a8054905081106109bf576040517f08c379a00000000000000000000000000000000000000000000000000000000081526004016109b690612f27565b60405180910390fd5b81600a81815481106109d4576109d3612f47565b5b906000526020600020906005020160030160009054906101000a900460ff1615610a33576040517f08c379a0000000000000000000000000000000000000000000000000000000008152600401610a2a90612fc2565b60405180910390fd5b6000600a8481548110610a4957610a48612f47565b5b906000526020600020906005020190506009600085815260200190815260200160002060003373ffffffffffffffffffffffffffffffffffffffff1673ffffffffffffffffffffffffffffffffffffffff16815260200190815260200160002060009054906101000a900460ff16610af6576040517f08c379a0000000000000000000000000000000000000000000000000000000008152600401610aed9061302e565b60405180910390fd5b6001816004016000828254610b0b919061307d565b9250508190555060006009600086815260200190815260200160002060003373ffffffffffffffffffffffffffffffffffffffff1673ffffffffffffffffffffffffffffffffffffffff16815260200190815260200160002060006101000a81548160ff021916908315150217905550833373ffffffffffffffffffffffffffffffffffffffff167ff0dca620e2e81f7841d07bcc105e1704fb01475b278a9d4c236e1c62945edd5560405160405180910390a350505050565b6000600a80549050905090565b60056020528060005260406000206000915054906101000a900460ff1681565b60008060606000806000600a8781548110610c1057610c0f612f47565b5b906000526020600020906005020190508060000160009054906101000a900473ffffffffffffffffffffffffffffffffffffffff168160010154826002018360030160009054906101000a900460ff168460040154828054610c7190612d65565b80601f0160208091040260200160405190810160405280929190818152602001828054610c9d90612d65565b8015610cea5780601f10610cbf57610100808354040283529160200191610cea565b820191906000526020600020905b815481529060010190602001808311610ccd57829003601f168201915b50505050509250955095509550955095505091939590929450565b60028181548110610d1557600080fd5b906000526020600020016000915090508054610d3090612d65565b80601f0160208091040260200160405190810160405280929190818152602001828054610d5c90612d65565b8015610da95780601f10610d7e57610100808354040283529160200191610da9565b820191906000526020600020905b815481529060010190602001808311610d8c57829003601f168201915b505050505081565b600560003373ffffffffffffffffffffffffffffffffffffffff1673ffffffffffffffffffffffffffffffffffffffff16815260200190815260200160002060009054906101000a900460ff16610e3d576040517f08c379a0000000000000000000000000000000000000000000000000000000008152600401610e3490612ebb565b60405180910390fd5b8160019080519060200190610e53929190612159565b508060049080519060200190610e6a9291906121df565b505050565b60086020528060005260406000206000915054906101000a900460ff1681565b60608060608060606003600060026001600484805480602002602001604051908101604052809291908181526020018280548015610f2257602002820191906000526020600020905b8160009054906101000a900473ffffffffffffffffffffffffffffffffffffffff1673ffffffffffffffffffffffffffffffffffffffff1681526020019060010190808311610ed8575b50505050509450838054610f3590612d65565b80601f0160208091040260200160405190810160405280929190818152602001828054610f6190612d65565b8015610fae5780601f10610f8357610100808354040283529160200191610fae565b820191906000526020600020905b815481529060010190602001808311610f9157829003601f168201915b5050505050935082805480602002602001604051908101604052809291908181526020016000905b82821015611082578382906000526020600020018054610ff590612d65565b80601f016020809104026020016040519081016040528092919081815260200182805461102190612d65565b801561106e5780601f106110435761010080835404028352916020019161106e565b820191906000526020600020905b81548152906001019060200180831161105157829003601f168201915b505050505081526020019060010190610fd6565b50505050925081805461109490612d65565b80601f01602080910402602001604051908101604052809291908181526020018280546110c090612d65565b801561110d5780601f106110e25761010080835404028352916020019161110d565b820191906000526020600020905b8154815290600101906020018083116110f057829003601f168201915b5050505050915080805480602002602001604051908101604052809291908181526020016000905b828210156111e157838290600052602060002001805461115490612d65565b80601f016020809104026020016040519081016040528092919081815260200182805461118090612d65565b80156111cd5780601f106111a2576101008083540402835291602001916111cd565b820191906000526020600020905b8154815290600101906020018083116111b057829003601f168201915b505050505081526020019060010190611135565b505050509050945094509450945094509091929394565b600560008373ffffffffffffffffffffffffffffffffffffffff1673ffffffffffffffffffffffffffffffffffffffff16815260200190815260200160002060009054906101000a900460ff1615611285576040517f08c379a000000000000000000000000000000000000000000000000000000000815260040161127c906130fd565b60405180910390fd5b600073ffffffffffffffffffffffffffffffffffffffff168273ffffffffffffffffffffffffffffffffffffffff1614156112f5576040517f08c379a00000000000000000000000000000000000000000000000000000000081526004016112ec90613169565b60405180910390fd5b600760405180604001604052808473ffffffffffffffffffffffffffffffffffffffff16815260200183815250908060018154018082558091505060019003906000526020600020906002020160009091909190915060008201518160000160006101000a81548173ffffffffffffffffffffffffffffffffffffffff021916908373ffffffffffffffffffffffffffffffffffffffff16021790555060208201518160010190805190602001906113ae92919061223f565b5050506001600860008473ffffffffffffffffffffffffffffffffffffffff1673ffffffffffffffffffffffffffffffffffffffff16815260200190815260200160002060006101000a81548160ff0219169083151502179055505050565b600560008273ffffffffffffffffffffffffffffffffffffffff1673ffffffffffffffffffffffffffffffffffffffff16815260200190815260200160002060009054906101000a900460ff161561149a576040517f08c379a0000000000000000000000000000000000000000000000000000000008152600401611491906130fd565b60405180910390fd5b600860008273ffffffffffffffffffffffffffffffffffffffff1673ffffffffffffffffffffffffffffffffffffffff16815260200190815260200160002060009054906101000a900460ff16611526576040517f08c379a000000000000000000000000000000000000000000000000000000000815260040161151d906131d5565b60405180910390fd5b3073ffffffffffffffffffffffffffffffffffffffff163373ffffffffffffffffffffffffffffffffffffffff1614611594576040517f08c379a000000000000000000000000000000000000000000000000000000000815260040161158b90612e4f565b60405180910390fd5b6001600560008373ffffffffffffffffffffffffffffffffffffffff1673ffffffffffffffffffffffffffffffffffffffff16815260200190815260200160002060006101000a81548160ff0219169083151502179055506003819080600181540180825580915050600190039060005260206000200160009091909190916101000a81548173ffffffffffffffffffffffffffffffffffffffff021916908373ffffffffffffffffffffffffffffffffffffffff16021790555050565b60096020528160005260406000206020528060005260406000206000915091509054906101000a900460ff1681565b600a818154811061169157600080fd5b90600052602060002090600502016000915090508060000160009054906101000a900473ffffffffffffffffffffffffffffffffffffffff16908060010154908060020180546116e090612d65565b80601f016020809104026020016040519081016040528092919081815260200182805461170c90612d65565b80156117595780601f1061172e57610100808354040283529160200191611759565b820191906000526020600020905b81548152906001019060200180831161173c57829003601f168201915b5050505050908060030160009054906101000a900460ff16908060040154905085565b6060600380548060200260200160405190810160405280929190818152602001828054801561180057602002820191906000526020600020905b8160009054906101000a900473ffffffffffffffffffffffffffffffffffffffff1673ffffffffffffffffffffffffffffffffffffffff16815260200190600101908083116117b6575b5050505050905090565b600560003373ffffffffffffffffffffffffffffffffffffffff1673ffffffffffffffffffffffffffffffffffffffff16815260200190815260200160002060009054906101000a900460ff16611896576040517f08c379a000000000000000000000000000000000000000000000000000000000815260040161188d90612ebb565b60405180910390fd5b80600a8054905081106118de576040517f08c379a00000000000000000000000000000000000000000000000000000000081526004016118d590612f27565b60405180910390fd5b81600a81815481106118f3576118f2612f47565b5b906000526020600020906005020160030160009054906101000a900460ff1615611952576040517f08c379a000000000000000000000000000000000000000000000000000000000815260040161194990612fc2565b60405180910390fd5b826009600082815260200190815260200160002060003373ffffffffffffffffffffffffffffffffffffffff1673ffffffffffffffffffffffffffffffffffffffff16815260200190815260200160002060009054906101000a900460ff16156119f1576040517f08c379a00000000000000000000000000000000000000000000000000000000081526004016119e890613241565b60405180910390fd5b6000600a8581548110611a0757611a06612f47565b5b906000526020600020906005020190506001816004016000828254611a2c9190613261565b9250508190555060016009600087815260200190815260200160002060003373ffffffffffffffffffffffffffffffffffffffff1673ffffffffffffffffffffffffffffffffffffffff16815260200190815260200160002060006101000a81548160ff021916908315150217905550843373ffffffffffffffffffffffffffffffffffffffff167f5cbe105e36805f7820e291f799d5794ff948af2a5f664e580382defb6339004160405160405180910390a35050505050565b600560003373ffffffffffffffffffffffffffffffffffffffff1673ffffffffffffffffffffffffffffffffffffffff16815260200190815260200160002060009054906101000a900460ff16611b73576040517f08c379a0000000000000000000000000000000000000000000000000000000008152600401611b6a90612ebb565b60405180910390fd5b6000600a805490509050600a6040518060a001604052808673ffffffffffffffffffffffffffffffffffffffff1681526020018581526020018481526020016000151581526020016000815250908060018154018082558091505060019003906000526020600020906005020160009091909190915060008201518160000160006101000a81548173ffffffffffffffffffffffffffffffffffffffff021916908373ffffffffffffffffffffffffffffffffffffffff160217905550602082015181600101556040820151816002019080519060200190611c5692919061223f565b5060608201518160030160006101000a81548160ff0219169083151502179055506080820151816004015550508373ffffffffffffffffffffffffffffffffffffffff16813373ffffffffffffffffffffffffffffffffffffffff167fd5a05bf70715ad82a09a756320284a1b54c9ff74cd0f8cce6219e79b563fe59d8686604051611ce39291906132b7565b60405180910390a450505050565b60065481565b60078181548110611d0757600080fd5b90600052602060002090600202016000915090508060000160009054906101000a900473ffffffffffffffffffffffffffffffffffffffff1690806001018054611d5090612d65565b80601f0160208091040260200160405190810160405280929190818152602001828054611d7c90612d65565b8015611dc95780601f10611d9e57610100808354040283529160200191611dc9565b820191906000526020600020905b815481529060010190602001808311611dac57829003601f168201915b5050505050905082565b600560003373ffffffffffffffffffffffffffffffffffffffff1673ffffffffffffffffffffffffffffffffffffffff16815260200190815260200160002060009054906101000a900460ff16611e5f576040517f08c379a0000000000000000000000000000000000000000000000000000000008152600401611e5690612ebb565b60405180910390fd5b80600a805490508110611ea7576040517f08c379a0000000000000000000000000000000000000000000000000000000008152600401611e9e90612f27565b60405180910390fd5b81600a8181548110611ebc57611ebb612f47565b5b906000526020600020906005020160030160009054906101000a900460ff1615611f1b576040517f08c379a0000000000000000000000000000000000000000000000000000000008152600401611f1290612fc2565b60405180910390fd5b6000600a8481548110611f3157611f30612f47565b5b9060005260206000209060050201905060065481600401541015611f8a576040517f08c379a0000000000000000000000000000000000000000000000000000000008152600401611f8190613333565b60405180910390fd5b60018160030160006101000a81548160ff02191690831515021790555060008160000160009054906101000a900473ffffffffffffffffffffffffffffffffffffffff1673ffffffffffffffffffffffffffffffffffffffff16826001015483600201604051611ffa91906133f2565b60006040518083038185875af1925050503d8060008114612037576040519150601f19603f3d011682016040523d82523d6000602084013e61203c565b606091505b5050905080612080576040517f08c379a000000000000000000000000000000000000000000000000000000000815260040161207790613455565b60405180910390fd5b843373ffffffffffffffffffffffffffffffffffffffff167f5445f318f4f5fcfb66592e68e0cc5822aa15664039bd5f0ffde24c5a8142b1ac60405160405180910390a35050505050565b600180546120d890612d65565b80601f016020809104026020016040519081016040528092919081815260200182805461210490612d65565b80156121515780601f1061212657610100808354040283529160200191612151565b820191906000526020600020905b81548152906001019060200180831161213457829003601f168201915b505050505081565b82805461216590612d65565b90600052602060002090601f01602090048101928261218757600085556121ce565b82601f106121a057805160ff19168380011785556121ce565b828001600101855582156121ce579182015b828111156121cd5782518255916020019190600101906121b2565b5b5090506121db91906122c5565b5090565b82805482825590600052602060002090810192821561222e579160200282015b8281111561222d57825182908051906020019061221d929190612159565b50916020019190600101906121ff565b5b50905061223b91906122e2565b5090565b82805461224b90612d65565b90600052602060002090601f01602090048101928261226d57600085556122b4565b82601f1061228657805160ff19168380011785556122b4565b828001600101855582156122b4579182015b828111156122b3578251825591602001919060010190612298565b5b5090506122c191906122c5565b5090565b5b808211156122de5760008160009055506001016122c6565b5090565b5b8082111561230257600081816122f99190612306565b506001016122e3565b5090565b50805461231290612d65565b6000825580601f106123245750612343565b601f01602090049060005260206000209081019061234291906122c5565b5b50565b6000819050919050565b61235981612346565b82525050565b60006040820190506123746000830185612350565b6123816020830184612350565b9392505050565b6000604051905090565b600080fd5b600080fd5b6123a581612346565b81146123b057600080fd5b50565b6000813590506123c28161239c565b92915050565b6000602082840312156123de576123dd612392565b5b60006123ec848285016123b3565b91505092915050565b600073ffffffffffffffffffffffffffffffffffffffff82169050919050565b6000612420826123f5565b9050919050565b61243081612415565b82525050565b600060208201905061244b6000830184612427565b92915050565b600081519050919050565b600082825260208201905092915050565b60005b8381101561248b578082015181840152602081019050612470565b8381111561249a576000848401525b50505050565b6000601f19601f8301169050919050565b60006124bc82612451565b6124c6818561245c565b93506124d681856020860161246d565b6124df816124a0565b840191505092915050565b6000602082019050818103600083015261250481846124b1565b905092915050565b61251581612415565b811461252057600080fd5b50565b6000813590506125328161250c565b92915050565b60006020828403121561254e5761254d612392565b5b600061255c84828501612523565b91505092915050565b600060208201905061257a6000830184612350565b92915050565b60008115159050919050565b61259581612580565b82525050565b60006020820190506125b0600083018461258c565b92915050565b600081519050919050565b600082825260208201905092915050565b60006125dd826125b6565b6125e781856125c1565b93506125f781856020860161246d565b612600816124a0565b840191505092915050565b600060a0820190506126206000830188612427565b61262d6020830187612350565b818103604083015261263f81866125d2565b905061264e606083018561258c565b61265b6080830184612350565b9695505050505050565b600080fd5b600080fd5b7f4e487b7100000000000000000000000000000000000000000000000000000000600052604160045260246000fd5b6126a7826124a0565b810181811067ffffffffffffffff821117156126c6576126c561266f565b5b80604052505050565b60006126d9612388565b90506126e5828261269e565b919050565b600067ffffffffffffffff8211156127055761270461266f565b5b61270e826124a0565b9050602081019050919050565b82818337600083830152505050565b600061273d612738846126ea565b6126cf565b9050828152602081018484840111156127595761275861266a565b5b61276484828561271b565b509392505050565b600082601f83011261278157612780612665565b5b813561279184826020860161272a565b91505092915050565b600067ffffffffffffffff8211156127b5576127b461266f565b5b602082029050602081019050919050565b600080fd5b60006127de6127d98461279a565b6126cf565b90508083825260208201905060208402830185811115612801576128006127c6565b5b835b8181101561284857803567ffffffffffffffff81111561282657612825612665565b5b808601612833898261276c565b85526020850194505050602081019050612803565b5050509392505050565b600082601f83011261286757612866612665565b5b81356128778482602086016127cb565b91505092915050565b6000806040838503121561289757612896612392565b5b600083013567ffffffffffffffff8111156128b5576128b4612397565b5b6128c18582860161276c565b925050602083013567ffffffffffffffff8111156128e2576128e1612397565b5b6128ee85828601612852565b9150509250929050565b600081519050919050565b600082825260208201905092915050565b6000819050602082019050919050565b61292d81612415565b82525050565b600061293f8383612924565b60208301905092915050565b6000602082019050919050565b6000612963826128f8565b61296d8185612903565b935061297883612914565b8060005b838110156129a95781516129908882612933565b975061299b8361294b565b92505060018101905061297c565b5085935050505092915050565b600081519050919050565b600082825260208201905092915050565b6000819050602082019050919050565b600082825260208201905092915050565b60006129fe82612451565b612a0881856129e2565b9350612a1881856020860161246d565b612a21816124a0565b840191505092915050565b6000612a3883836129f3565b905092915050565b6000602082019050919050565b6000612a58826129b6565b612a6281856129c1565b935083602082028501612a74856129d2565b8060005b85811015612ab05784840389528151612a918582612a2c565b9450612a9c83612a40565b925060208a01995050600181019050612a78565b50829750879550505050505092915050565b600060a0820190508181036000830152612adc8188612958565b90508181036020830152612af081876124b1565b90508181036040830152612b048186612a4d565b90508181036060830152612b1881856124b1565b90508181036080830152612b2c8184612a4d565b90509695505050505050565b600067ffffffffffffffff821115612b5357612b5261266f565b5b612b5c826124a0565b9050602081019050919050565b6000612b7c612b7784612b38565b6126cf565b905082815260208101848484011115612b9857612b9761266a565b5b612ba384828561271b565b509392505050565b600082601f830112612bc057612bbf612665565b5b8135612bd0848260208601612b69565b91505092915050565b60008060408385031215612bf057612bef612392565b5b6000612bfe85828601612523565b925050602083013567ffffffffffffffff811115612c1f57612c1e612397565b5b612c2b85828601612bab565b9150509250929050565b60008060408385031215612c4c57612c4b612392565b5b6000612c5a858286016123b3565b9250506020612c6b85828601612523565b9150509250929050565b60006020820190508181036000830152612c8f8184612958565b905092915050565b600080600060608486031215612cb057612caf612392565b5b6000612cbe86828701612523565b9350506020612ccf868287016123b3565b925050604084013567ffffffffffffffff811115612cf057612cef612397565b5b612cfc86828701612bab565b9150509250925092565b6000604082019050612d1b6000830185612427565b8181036020830152612d2d81846125d2565b90509392505050565b7f4e487b7100000000000000000000000000000000000000000000000000000000600052602260045260246000fd5b60006002820490506001821680612d7d57607f821691505b60208210811415612d9157612d90612d36565b5b50919050565b7f6f776e657220646f65736e277420657869737400000000000000000000000000600082015250565b6000612dcd60138361245c565b9150612dd882612d97565b602082019050919050565b60006020820190508181036000830152612dfc81612dc0565b9050919050565b7f43616c6c206e6f742073656e6420627920636f6e747261637400000000000000600082015250565b6000612e3960198361245c565b9150612e4482612e03565b602082019050919050565b60006020820190508181036000830152612e6881612e2c565b9050919050565b7f6e6f74206f776e65720000000000000000000000000000000000000000000000600082015250565b6000612ea560098361245c565b9150612eb082612e6f565b602082019050919050565b60006020820190508181036000830152612ed481612e98565b9050919050565b7f747820646f6573206e6f74206578697374000000000000000000000000000000600082015250565b6000612f1160118361245c565b9150612f1c82612edb565b602082019050919050565b60006020820190508181036000830152612f4081612f04565b9050919050565b7f4e487b7100000000000000000000000000000000000000000000000000000000600052603260045260246000fd5b7f747820616c726561647920657865637574656400000000000000000000000000600082015250565b6000612fac60138361245c565b9150612fb782612f76565b602082019050919050565b60006020820190508181036000830152612fdb81612f9f565b9050919050565b7f7478206e6f7420636f6e6669726d656400000000000000000000000000000000600082015250565b600061301860108361245c565b915061302382612fe2565b602082019050919050565b600060208201905081810360008301526130478161300b565b9050919050565b7f4e487b7100000000000000000000000000000000000000000000000000000000600052601160045260246000fd5b600061308882612346565b915061309383612346565b9250828210156130a6576130a561304e565b5b828203905092915050565b7f6f776e657220616c726561647920657869737473000000000000000000000000600082015250565b60006130e760148361245c565b91506130f2826130b1565b602082019050919050565b60006020820190508181036000830152613116816130da565b9050919050565b7f696e76616c696420757365720000000000000000000000000000000000000000600082015250565b6000613153600c8361245c565b915061315e8261311d565b602082019050919050565b6000602082019050818103600083015261318281613146565b9050919050565b7f75736572206861736e742070726f706f73656420796574210000000000000000600082015250565b60006131bf60188361245c565b91506131ca82613189565b602082019050919050565b600060208201905081810360008301526131ee816131b2565b9050919050565b7f747820616c726561647920636f6e6669726d6564000000000000000000000000600082015250565b600061322b60148361245c565b9150613236826131f5565b602082019050919050565b6000602082019050818103600083015261325a8161321e565b9050919050565b600061326c82612346565b915061327783612346565b9250827fffffffffffffffffffffffffffffffffffffffffffffffffffffffffffffffff038211156132ac576132ab61304e565b5b828201905092915050565b60006040820190506132cc6000830185612350565b81810360208301526132de81846125d2565b90509392505050565b7f63616e6e6f742065786563757465207478000000000000000000000000000000600082015250565b600061331d60118361245c565b9150613328826132e7565b602082019050919050565b6000602082019050818103600083015261334c81613310565b9050919050565b600081905092915050565b60008190508160005260206000209050919050565b6000815461338081612d65565b61338a8186613353565b945060018216600081146133a557600181146133b6576133e9565b60ff198316865281860193506133e9565b6133bf8561335e565b60005b838110156133e1578154818901526001820191506020810190506133c2565b838801955050505b50505092915050565b60006133fe8284613373565b915081905092915050565b7f7478206661696c65640000000000000000000000000000000000000000000000600082015250565b600061343f60098361245c565b915061344a82613409565b602082019050919050565b6000602082019050818103600083015261346e81613432565b905091905056fea264697066735822122021bd5b82ebc862f29b222e5b458599b449d352dcb22f03a1b04f182c3d315f8164736f6c634300080a0033a26469706673582212205872afd38687945ae78ca511cee69d7f394262d75b6e53019e373c822399ace364736f6c634300080a0033",
  "linkReferences": {},
  "deployedLinkReferences": {}
}