{
  "_format": "hh-sol-artifact-1",
  "contractName": "MockProfileCreationProxy",
  "sourceName": "contracts/mocks/MockProfileCreationProxy.sol",
  "abi": [
    {
      "inputs": [
        {
          "internalType": "address",
          "name": "hub",
          "type": "address"
        }
      ],
      "stateMutability": "nonpayable",
      "type": "constructor"
    },
    {
      "inputs": [
        {
          "components": [
            {
              "internalType": "address",
              "name": "to",
              "type": "address"
            },
            {
              "internalType": "string",
              "name": "handle",
              "type": "string"
            },
            {
              "internalType": "string",
              "name": "imageURI",
              "type": "string"
            },
            {
              "internalType": "address",
              "name": "followModule",
              "type": "address"
            },
            {
              "internalType": "bytes",
              "name": "followModuleData",
              "type": "bytes"
            },
            {
              "internalType": "string",
              "name": "followNFTURI",
              "type": "string"
            }
          ],
          "internalType": "struct DataTypes.CreateProfileData",
          "name": "vars",
          "type": "tuple"
        }
      ],
      "name": "proxyCreateProfile",
      "outputs": [],
      "stateMutability": "nonpayable",
      "type": "function"
    }
  ],
  "bytecode": "0x60a060405234801561001057600080fd5b5060405161033438038061033483398101604081905261002f91610040565b6001600160a01b0316608052610070565b60006020828403121561005257600080fd5b81516001600160a01b038116811461006957600080fd5b9392505050565b6080516102aa61008a6000396000605f01526102aa6000f3fe608060405234801561001057600080fd5b506004361061002b5760003560e01c806307e5f94814610030575b600080fd5b61004361003e3660046100c9565b610045565b005b6040516001620af63960e11b031981526001600160a01b037f0000000000000000000000000000000000000000000000000000000000000000169063ffea138e9061009490849060040161019d565b600060405180830381600087803b1580156100ae57600080fd5b505af11580156100c2573d6000803e3d6000fd5b5050505050565b6000602082840312156100db57600080fd5b813567ffffffffffffffff8111156100f257600080fd5b820160c0818503121561010457600080fd5b9392505050565b80356001600160a01b038116811461012257600080fd5b919050565b6000808335601e1984360301811261013e57600080fd5b830160208101925035905067ffffffffffffffff81111561015e57600080fd5b80360383131561016d57600080fd5b9250929050565b81835281816020850137506000828201602090810191909152601f909101601f19169091010190565b6020815260006001600160a01b03806101b58561010b565b1660208401526101c86020850185610127565b60c060408601526101dd60e086018284610174565b9150506101ed6040860186610127565b601f1980878503016060880152610205848385610174565b93508461021460608a0161010b565b1660808801526102276080890189610127565b95509250808785030160a0880152610240848685610174565b945061024f60a0890189610127565b94509250808786030160c0880152505061026a838383610174565b969550505050505056fea2646970667358221220fd536c12271424b5d76e2456b202ee5e2da0c2c34b290ae355ddc2f9a604b8b364736f6c634300080a0033",
  "linkReferences": {},
  "deployedLinkReferences": {}
}